{
  "_format": "hh-sol-artifact-1",
  "contractName": "LandRegistry",
  "sourceName": "contracts/LandRegistry.sol",
  "abi": [
    {
      "inputs": [],
      "stateMutability": "nonpayable",
      "type": "constructor"
    },
    {
      "anonymous": false,
      "inputs": [
        {
          "indexed": false,
          "internalType": "uint256",
          "name": "landId",
          "type": "uint256"
        },
        {
          "indexed": false,
          "internalType": "uint256",
          "name": "price",
          "type": "uint256"
        }
      ],
      "name": "LandListed",
      "type": "event"
    },
    {
      "anonymous": false,
      "inputs": [
        {
          "indexed": false,
          "internalType": "uint256",
          "name": "landId",
          "type": "uint256"
        },
        {
          "indexed": false,
          "internalType": "address",
          "name": "owner",
          "type": "address"
        }
      ],
      "name": "LandRegistered",
      "type": "event"
    },
    {
      "anonymous": false,
      "inputs": [
        {
          "indexed": false,
          "internalType": "uint256",
          "name": "landId",
          "type": "uint256"
        },
        {
          "indexed": false,
          "internalType": "address",
          "name": "newOwner",
          "type": "address"
        }
      ],
      "name": "LandSold",
      "type": "event"
    },
    {
      "inputs": [],
      "name": "admin",
      "outputs": [
        {
          "internalType": "address",
          "name": "",
          "type": "address"
        }
      ],
      "stateMutability": "view",
      "type": "function"
    },
    {
      "inputs": [
        {
          "internalType": "uint256",
          "name": "_landId",
          "type": "uint256"
        }
      ],
      "name": "buyLand",
      "outputs": [],
      "stateMutability": "payable",
      "type": "function"
    },
    {
      "inputs": [
        {
          "internalType": "uint256",
          "name": "_landId",
          "type": "uint256"
        }
      ],
      "name": "getLand",
      "outputs": [
        {
          "internalType": "uint256",
          "name": "",
          "type": "uint256"
        },
        {
          "internalType": "string",
          "name": "",
          "type": "string"
        },
        {
          "internalType": "string",
          "name": "",
          "type": "string"
        },
        {
          "internalType": "uint256",
          "name": "",
          "type": "uint256"
        },
        {
          "internalType": "address",
          "name": "",
          "type": "address"
        },
        {
          "internalType": "bool",
          "name": "",
          "type": "bool"
        },
        {
          "internalType": "uint256",
          "name": "",
          "type": "uint256"
        }
      ],
      "stateMutability": "view",
      "type": "function"
    },
    {
      "inputs": [
        {
          "internalType": "uint256",
          "name": "",
          "type": "uint256"
        }
      ],
      "name": "lands",
      "outputs": [
        {
          "internalType": "uint256",
          "name": "landId",
          "type": "uint256"
        },
        {
          "internalType": "string",
          "name": "title",
          "type": "string"
        },
        {
          "internalType": "string",
          "name": "location",
          "type": "string"
        },
        {
          "internalType": "uint256",
          "name": "area",
          "type": "uint256"
        },
        {
          "internalType": "address",
          "name": "owner",
          "type": "address"
        },
        {
          "internalType": "bool",
          "name": "isForSale",
          "type": "bool"
        },
        {
          "internalType": "uint256",
          "name": "price",
          "type": "uint256"
        }
      ],
      "stateMutability": "view",
      "type": "function"
    },
    {
      "inputs": [
        {
          "internalType": "uint256",
          "name": "_landId",
          "type": "uint256"
        },
        {
          "internalType": "uint256",
          "name": "_price",
          "type": "uint256"
        }
      ],
      "name": "listForSale",
      "outputs": [],
      "stateMutability": "nonpayable",
      "type": "function"
    },
    {
      "inputs": [
        {
          "internalType": "uint256",
          "name": "_landId",
          "type": "uint256"
        },
        {
          "internalType": "string",
          "name": "_title",
          "type": "string"
        },
        {
          "internalType": "string",
          "name": "_location",
          "type": "string"
        },
        {
          "internalType": "uint256",
          "name": "_area",
          "type": "uint256"
        },
        {
          "internalType": "address",
          "name": "_owner",
          "type": "address"
        }
      ],
      "name": "registerLand",
      "outputs": [],
      "stateMutability": "nonpayable",
      "type": "function"
    }
  ],
  "bytecode": "0x6080604052348015600f57600080fd5b50336000806101000a81548173ffffffffffffffffffffffffffffffffffffffff021916908373ffffffffffffffffffffffffffffffffffffffff1602179055506114f68061005f6000396000f3fe6080604052600436106100555760003560e01c8063ced395581461005a578063e261f1e514610076578063e456aeac146100b9578063e80d7fec146100e2578063f02dd53f1461010b578063f851a4401461014e575b600080fd5b610074600480360381019061006f9190610af4565b610179565b005b34801561008257600080fd5b5061009d60048036038101906100989190610af4565b610340565b6040516100b09796959493929190610c1c565b60405180910390f35b3480156100c557600080fd5b506100e060048036038101906100db9190610dfa565b6104bf565b005b3480156100ee57600080fd5b5061010960048036038101906101049190610ead565b6106fa565b005b34801561011757600080fd5b50610132600480360381019061012d9190610af4565b610869565b6040516101459796959493929190610c1c565b60405180910390f35b34801561015a57600080fd5b50610163610a86565b6040516101709190610eed565b60405180910390f35b60006001600083815260200190815260200160002090508060040160149054906101000a900460ff166101e1576040517f08c379a00000000000000000000000000000000000000000000000000000000081526004016101d890610f54565b60405180910390fd5b8060050154341015610228576040517f08c379a000000000000000000000000000000000000000000000000000000000815260040161021f90610fc0565b60405180910390fd5b60008160040160009054906101000a900473ffffffffffffffffffffffffffffffffffffffff169050338260040160006101000a81548173ffffffffffffffffffffffffffffffffffffffff021916908373ffffffffffffffffffffffffffffffffffffffff16021790555060008260040160146101000a81548160ff021916908315150217905550600082600501819055508073ffffffffffffffffffffffffffffffffffffffff166108fc349081150290604051600060405180830381858888f19350505050158015610301573d6000803e3d6000fd5b507fd5a9dce1f49553ba6b5ca64615f7cd5e06d6baab5d39ecb7f5257a9abb926fbb8333604051610333929190610fe0565b60405180910390a1505050565b600160205280600052604060002060009150905080600001549080600101805461036990611038565b80601f016020809104026020016040519081016040528092919081815260200182805461039590611038565b80156103e25780601f106103b7576101008083540402835291602001916103e2565b820191906000526020600020905b8154815290600101906020018083116103c557829003601f168201915b5050505050908060020180546103f790611038565b80601f016020809104026020016040519081016040528092919081815260200182805461042390611038565b80156104705780601f1061044557610100808354040283529160200191610470565b820191906000526020600020905b81548152906001019060200180831161045357829003601f168201915b5050505050908060030154908060040160009054906101000a900473ffffffffffffffffffffffffffffffffffffffff16908060040160149054906101000a900460ff16908060050154905087565b60008054906101000a900473ffffffffffffffffffffffffffffffffffffffff1673ffffffffffffffffffffffffffffffffffffffff163373ffffffffffffffffffffffffffffffffffffffff161461054d576040517f08c379a0000000000000000000000000000000000000000000000000000000008152600401610544906110b5565b60405180910390fd5b60006001600087815260200190815260200160002060000154146105a6576040517f08c379a000000000000000000000000000000000000000000000000000000000815260040161059d90611121565b60405180910390fd5b6040518060e001604052808681526020018581526020018481526020018381526020018273ffffffffffffffffffffffffffffffffffffffff16815260200160001515815260200160008152506001600087815260200190815260200160002060008201518160000155602082015181600101908161062591906112ed565b50604082015181600201908161063b91906112ed565b506060820151816003015560808201518160040160006101000a81548173ffffffffffffffffffffffffffffffffffffffff021916908373ffffffffffffffffffffffffffffffffffffffff16021790555060a08201518160040160146101000a81548160ff02191690831515021790555060c082015181600501559050507fcb4990052f95f6057496d19524f6c3163f50af9f33f2c15b092928e03414323e85826040516106eb929190610fe0565b60405180910390a15050505050565b813373ffffffffffffffffffffffffffffffffffffffff166001600083815260200190815260200160002060040160009054906101000a900473ffffffffffffffffffffffffffffffffffffffff1673ffffffffffffffffffffffffffffffffffffffff161461079f576040517f08c379a00000000000000000000000000000000000000000000000000000000081526004016107969061140b565b60405180910390fd5b600082116107e2576040517f08c379a00000000000000000000000000000000000000000000000000000000081526004016107d990611477565b60405180910390fd5b600180600085815260200190815260200160002060040160146101000a81548160ff0219169083151502179055508160016000858152602001908152602001600020600501819055507f2f9b23898410304c2b8c29547330c8ef08ad5f7c80b5204df939744931e27520838360405161085c929190611497565b60405180910390a1505050565b60006060806000806000806000600160008a81526020019081526020016000206040518060e0016040529081600082015481526020016001820180546108ae90611038565b80601f01602080910402602001604051908101604052809291908181526020018280546108da90611038565b80156109275780601f106108fc57610100808354040283529160200191610927565b820191906000526020600020905b81548152906001019060200180831161090a57829003601f168201915b5050505050815260200160028201805461094090611038565b80601f016020809104026020016040519081016040528092919081815260200182805461096c90611038565b80156109b95780601f1061098e576101008083540402835291602001916109b9565b820191906000526020600020905b81548152906001019060200180831161099c57829003601f168201915b50505050508152602001600382015481526020016004820160009054906101000a900473ffffffffffffffffffffffffffffffffffffffff1673ffffffffffffffffffffffffffffffffffffffff1673ffffffffffffffffffffffffffffffffffffffff1681526020016004820160149054906101000a900460ff161515151581526020016005820154815250509050806000015181602001518260400151836060015184608001518560a001518660c00151975097509750975097509750975050919395979092949650565b60008054906101000a900473ffffffffffffffffffffffffffffffffffffffff1681565b6000604051905090565b600080fd5b600080fd5b6000819050919050565b610ad181610abe565b8114610adc57600080fd5b50565b600081359050610aee81610ac8565b92915050565b600060208284031215610b0a57610b09610ab4565b5b6000610b1884828501610adf565b91505092915050565b610b2a81610abe565b82525050565b600081519050919050565b600082825260208201905092915050565b60005b83811015610b6a578082015181840152602081019050610b4f565b60008484015250505050565b6000601f19601f8301169050919050565b6000610b9282610b30565b610b9c8185610b3b565b9350610bac818560208601610b4c565b610bb581610b76565b840191505092915050565b600073ffffffffffffffffffffffffffffffffffffffff82169050919050565b6000610beb82610bc0565b9050919050565b610bfb81610be0565b82525050565b60008115159050919050565b610c1681610c01565b82525050565b600060e082019050610c31600083018a610b21565b8181036020830152610c438189610b87565b90508181036040830152610c578188610b87565b9050610c666060830187610b21565b610c736080830186610bf2565b610c8060a0830185610c0d565b610c8d60c0830184610b21565b98975050505050505050565b600080fd5b600080fd5b7f4e487b7100000000000000000000000000000000000000000000000000000000600052604160045260246000fd5b610cdb82610b76565b810181811067ffffffffffffffff82111715610cfa57610cf9610ca3565b5b80604052505050565b6000610d0d610aaa565b9050610d198282610cd2565b919050565b600067ffffffffffffffff821115610d3957610d38610ca3565b5b610d4282610b76565b9050602081019050919050565b82818337600083830152505050565b6000610d71610d6c84610d1e565b610d03565b905082815260208101848484011115610d8d57610d8c610c9e565b5b610d98848285610d4f565b509392505050565b600082601f830112610db557610db4610c99565b5b8135610dc5848260208601610d5e565b91505092915050565b610dd781610be0565b8114610de257600080fd5b50565b600081359050610df481610dce565b92915050565b600080600080600060a08688031215610e1657610e15610ab4565b5b6000610e2488828901610adf565b955050602086013567ffffffffffffffff811115610e4557610e44610ab9565b5b610e5188828901610da0565b945050604086013567ffffffffffffffff811115610e7257610e71610ab9565b5b610e7e88828901610da0565b9350506060610e8f88828901610adf565b9250506080610ea088828901610de5565b9150509295509295909350565b60008060408385031215610ec457610ec3610ab4565b5b6000610ed285828601610adf565b9250506020610ee385828601610adf565b9150509250929050565b6000602082019050610f026000830184610bf2565b92915050565b7f4e6f7420666f722073616c650000000000000000000000000000000000000000600082015250565b6000610f3e600c83610b3b565b9150610f4982610f08565b602082019050919050565b60006020820190508181036000830152610f6d81610f31565b9050919050565b7f496e73756666696369656e74207061796d656e74000000000000000000000000600082015250565b6000610faa601483610b3b565b9150610fb582610f74565b602082019050919050565b60006020820190508181036000830152610fd981610f9d565b9050919050565b6000604082019050610ff56000830185610b21565b6110026020830184610bf2565b9392505050565b7f4e487b7100000000000000000000000000000000000000000000000000000000600052602260045260246000fd5b6000600282049050600182168061105057607f821691505b60208210810361106357611062611009565b5b50919050565b7f4f6e6c792061646d696e20616c6c6f7765640000000000000000000000000000600082015250565b600061109f601283610b3b565b91506110aa82611069565b602082019050919050565b600060208201905081810360008301526110ce81611092565b9050919050565b7f4c616e6420616c72656164792065786973747300000000000000000000000000600082015250565b600061110b601383610b3b565b9150611116826110d5565b602082019050919050565b6000602082019050818103600083015261113a816110fe565b9050919050565b60008190508160005260206000209050919050565b60006020601f8301049050919050565b600082821b905092915050565b6000600883026111a37fffffffffffffffffffffffffffffffffffffffffffffffffffffffffffffffff82611166565b6111ad8683611166565b95508019841693508086168417925050509392505050565b6000819050919050565b60006111ea6111e56111e084610abe565b6111c5565b610abe565b9050919050565b6000819050919050565b611204836111cf565b611218611210826111f1565b848454611173565b825550505050565b600090565b61122d611220565b6112388184846111fb565b505050565b5b8181101561125c57611251600082611225565b60018101905061123e565b5050565b601f8211156112a15761127281611141565b61127b84611156565b8101602085101561128a578190505b61129e61129685611156565b83018261123d565b50505b505050565b600082821c905092915050565b60006112c4600019846008026112a6565b1980831691505092915050565b60006112dd83836112b3565b9150826002028217905092915050565b6112f682610b30565b67ffffffffffffffff81111561130f5761130e610ca3565b5b6113198254611038565b611324828285611260565b600060209050601f8311600181146113575760008415611345578287015190505b61134f85826112d1565b8655506113b7565b601f19841661136586611141565b60005b8281101561138d57848901518255600182019150602085019450602081019050611368565b868310156113aa57848901516113a6601f8916826112b3565b8355505b6001600288020188555050505b505050505050565b7f4e6f74206f776e65720000000000000000000000000000000000000000000000600082015250565b60006113f5600983610b3b565b9150611400826113bf565b602082019050919050565b60006020820190508181036000830152611424816113e8565b9050919050565b7f496e76616c696420707269636500000000000000000000000000000000000000600082015250565b6000611461600d83610b3b565b915061146c8261142b565b602082019050919050565b6000602082019050818103600083015261149081611454565b9050919050565b60006040820190506114ac6000830185610b21565b6114b96020830184610b21565b939250505056fea2646970667358221220a3a3115534f6f15311a4ea13c38ddb2e1147e8e3cc39b3a226712fecb14ef23964736f6c634300081c0033",
  "linkReferences": {},
  "deployedLinkReferences": {}
}